:100000000A128A11FC2F00308A000408840A820731
:060010000034E834033463
:10003E00FD01F91F2928F809F909F80A0319F90A27
:10004E00FD01FD0A7808F0007908F100F2018E300A
:10005E00FB007B08F3007D08FC007C08F4000A120C
:10006E008A1140207008F8007108F9007208FA0031
:10007E000800730803194828720871047004031DE0
:10008E005B280030F0000030F1000030F200080074
:10009E000130F5007508F30701300310F20CF10C76
:1000AE00F00CFF3E031D5428FE307205031976280E
:1000BE004F280130F5007508F3070130F0070030C6
:1000CE0003180130F107003003180130F207013038
:1000DE000310F20CF10CF00CFF3E031D6F28FF30E5
:1000EE0072050319852860280130F30201300310D0
:1000FE00F00DF10DF20DFF3E031D7E28F11B8B2836
:10010E000230730203187B2873189328FF30F00512
:10011E007F30F105FF30F2050310F30C7308F50084
:10012E00F601F70110300310F50DF60DF70DFF3E39
:10013E00031D9A287508F0047608F1047708F20476
:10014E00740803190800F21708008312031330080D
:10015E00B4003108B5003208B6000310350D360D67
:10016E00B7003708BD003D08031DC6280030B30098
:10017E000030B2000030B1000030B000080030088E
:10018E00B4003108B5003208B60017300310B60CB3
:10019E00B50CB40CFF3E031DCD283408B70037084C
:1001AE00B800B117FF30B005FF30B1050030B20511
:1001BE003008B9003108BA003208BB00BC018E30DD
:1001CE00BD02BD1F08293D08803A8F3E0318F8284E
:1001DE000030B3000030B2000030B1000030B0008B
:1001EE00080001300310BC0CBB0CBA0CB90CFF3E5E
:1001FE00031DF9280130B4003408BD070319232963
:10020E00F82818303D02031C20290030B3000030BE
:10021E00B2000030B1000030B00008000130B40070
:10022E000310B90DBA0DBB0DBC0DB40B172901305F
:10023E00BD023D08031D1529380803193129B909D6
:10024E00BA09BB09BC09B90A0319BA0A0319BB0AD0
:10025E000319BC0A3C08B3003B08B2003A08B100CF
:10026E003908B0000800831203132008A6002108E5
:10027E00A7002208A8000310270D280DA9002908A1
:10028E00AA002A08031D52290030A0000030A10048
:10029E000030A20008002308A6002408A7002508A5
:1002AE00A8000310270D280DA9002908AF002F085C
:1002BE00031D68290030A0000030A1000030A2000C
:1002CE0008002F087B3EA6002608AA072008A600D5
:1002DE002108A7002208A80010300310A80CA70CB4
:1002EE00A60CFF3E031D74292608A9002908AF009D
:1002FE002308A6002408A7002508A8001030031024
:10030E00A80CA70CA60CFF3E031D86292608A900E3
:10031E002908AF068030A6002608AF05A117A4173E
:10032E00FF30A305FF30A4050030A5050030AB005B
:10033E000030AC000030AD000730A6002608AE003D
:10034E00201CB7292308AB07240803110318240A1D
:10035E00031DAC07250803110318250A031DAD075D
:10036E0001300310A20CA10CA00CFF3E031DB829F6
:10037E0001300310A30DA40DA50DFF3E031DC029D2
:10038E000130AE02031DA7290930A6002608AE00D3
:10039E00201CDF292308AB07240803110318240AA5
:1003AE00031DAC07250803110318250A031DAD070D
:1003BE0001300310A20CA10CA00CFF3E031DE0297E
:1003CE0001300310AD0CAC0CAB0CFF3E031DE82945
:1003DE000130AE02031DCF292B08F0002C08F100CE
:1003EE002D08F2002A08A6002608F3002F08A70001
:1003FE002708F4000A128A11402070088312031392
:10040E00A0007108A1007208A20008008316031351
:10041E0086018312031386010130831603138700AE
:10042E0083120313870183120313071C242C01303C
:10043E008600013084000A128A1103200A128A11E2
:10044E00F8000A128A1103200A128A11F9000A1200
:10045E008A111F200A128A11780883120313A3002F
:10046E007908A4007A08A5000030A0007A30A10017
:10047E004430A2000A128A113A210A128A118312FA
:10048E0003132008B0002108B1002208B2000A129E
:10049E008A11AC200A128A11831203133008BE008F
:1004AE003108BF003208C0003308C1000230831289
:1004BE0003138600013084000A128A1103200A12E7
:1004CE008A11F8000A128A1103200A128A11F90001
:1004DE000A128A111F200A128A1178088312031336
:1004EE00A3007908A4007A08A5000030A0007A3095
:1004FE00A1004430A2000A128A113A210A128A116E
:10050E00831203132008B0002108B1002208B200A4
:10051E000A128A11AC200A128A11831203133008B0
:10052E00BE003108BF003208C0003308C1000430DD
:10053E00831203138600013084000A128A110320ED
:10054E000A128A11F8000A128A1103200A128A115D
:10055E00F9000A128A111F200A128A1178088312D2
:10056E000313A3007908A4007A08A5000030A000A8
:10057E007A30A1004430A2000A128A113A210A12DE
:10058E008A11831203132008B0002108B10022083B
:10059E00B2000A128A11AC200A128A1183120313B6
:1005AE003008BE003108BF003208C0003308C10059
:1005BE000830831203138600013084000A128A1158
:1005CE0003200A128A11F8000A128A1103200A1255
:1005DE008A11F9000A128A111F200A128A1178084C
:1005EE0083120313A3007908A4007A08A500003033
:1005FE00A0007A30A1004430A2000A128A113A21DA
:10060E000A128A11831203132008B0002108B100C8
:10061E002208B2000A128A11AC200A128A11831221
:10062E0003133008BE003108BF003208C000330883
:10063E00C1001030831203138600013084000A12A9
:10064E008A1103200A128A11F8000A128A11032055
:10065E000A128A11F9000A128A111F200A128A112F
:10066E00780883120313A3007908A4007A08A50062
:10067E000030A0007A30A1004430A2000A128A1184
:10068E003A210A128A11831203132008B00021089E
:10069E00B1002208B2000A128A11AC200A128A1185
:1006AE00831203133008BE003108BF003208C000A9
:1006BE003308C100203083120313860001308400FA
:1006CE000A128A1103200A128A11F8000A128A11DC
:1006DE0003200A128A11F9000A128A111F200A1227
:1006EE008A11780883120313A3007908A4007A08EC
:1006FE00A5000030A0007A30A1004430A2000A12FA
:10070E008A113A210A128A11831203132008B000AB
:10071E002108B1002208B2000A128A11AC200A1276
:10072E008A11831203133008BE003108BF0032084D
:10073E00C0003308C100403083120313860001301D
:10074E0084000A128A1103200A128A11F8000A1272
:10075E008A1103200A128A11F9000A128A111F2027
:10076E000A128A11780883120313A3007908A400D1
:10077E007A08A5000030A0007A30A1004430A20013
:10078E000A128A113A210A128A11831203132008BF
:10079E00B0002108B1002208B2000A128A11AC2062
:1007AE000A128A11831203133008BE003108BF00EB
:1007BE003208C0003308C100803083120313860054
:1007CE00013084000A128A1103200A128A11F800DD
:1007DE000A128A1103200A128A11F9000A128A11CA
:1007EE001F200A128A11780883120313A3007908B6
:1007FE00A4007A08A5000030A0007A30A100443091
:10080E00A2000A128A113A210A128A1183120313C4
:10081E002008B0002108B1002208B2000A128A1185
:10082E00AC200A128A11831203133008BE0031085D
:10083E00BF003208C0003308C10083120313871CA7
:10084E00ED2C81308600013084000A128A110320BB
:10085E000A128A11F8000A128A1103200A128A114A
:10086E00F9000A128A111F200A128A1178088312BF
:10087E000313A3007908A4007A08A5000030A00095
:10088E007A30A1004430A2000A128A113A210A12CB
:10089E008A11831203132008B0002108B100220828
:1008AE00B2000A128A11AC200A128A1183120313A3
:1008BE003008BE003108BF003208C0003308C10046
:1008CE004230831203138600013084000A128A110B
:1008DE0003200A128A11F8000A128A1103200A1242
:1008EE008A11F9000A128A111F200A128A11780839
:1008FE0083120313A3007908A4007A08A500003020
:10090E00A0007A30A1004430A2000A128A113A21C6
:10091E000A128A11831203132008B0002108B100B5
:10092E002208B2000A128A11AC200A128A1183120E
:10093E0003133008BE003108BF003208C000330870
:10094E00C1002430831203138600013084000A1282
:10095E008A1103200A128A11F8000A128A11032042
:10096E000A128A11F9000A128A111F200A128A111C
:10097E00780883120313A3007908A4007A08A5004F
:10098E000030A0007A30A1004430A2000A128A1171
:10099E003A210A128A11831203132008B00021088B
:1009AE00B1002208B2000A128A11AC200A128A1172
:1009BE00831203133008BE003108BF003208C00096
:1009CE003308C1001830831203138600071DF12D62
:1009DE0018308600013084000A128A1103200A1290
:1009EE008A11F8000A128A1103200A128A11F900DC
:1009FE000A128A111F200A128A1178088312031311
:100A0E00A3007908A4007A08A5000030A0007A306F
:100A1E00A1004430A2000A128A113A210A128A1148
:100A2E00831203132008B0002108B1002208B2007F
:100A3E000A128A11AC200A128A118312031330088B
:100A4E00BE003108BF003208C0003308C100243098
:100A5E00831203138600013084000A128A110320C8
:100A6E000A128A11F8000A128A1103200A128A1138
:100A7E00F9000A128A111F200A128A1178088312AD
:100A8E000313A3007908A4007A08A5000030A00083
:100A9E007A30A1004430A2000A128A113A210A12B9
:100AAE008A11831203132008B0002108B100220816
:100ABE00B2000A128A11AC200A128A118312031391
:100ACE003008BE003108BF003208C0003308C10034
:100ADE004230831203138600013084000A128A11F9
:100AEE0003200A128A11F8000A128A1103200A1230
:100AFE008A11F9000A128A111F200A128A11780827
:100B0E0083120313A3007908A4007A08A50000300D
:100B1E00A0007A30A1004430A2000A128A113A21B4
:100B2E000A128A11831203132008B0002108B100A3
:100B3E002208B2000A128A11AC200A128A118312FC
:100B4E0003133008BE003108BF003208C00033085E
:100B5E00C1008130831203138600013084000A1213
:100B6E008A1103200A128A11F8000A128A11032030
:100B7E000A128A11F9000A128A111F200A128A110A
:100B8E00780883120313A3007908A4007A08A5003D
:100B9E000030A0007A30A1004430A2000A128A115F
:100BAE003A210A128A11831203132008B000210879
:100BBE00B1002208B2000A128A11AC200A128A1160
:100BCE00831203133008BE003108BF003208C00084
:100BDE003308C10083120313871D1A2A8030860042
:100BEE00013084000A128A1103200A128A11F800B9
:100BFE000A128A1103200A128A11F9000A128A11A6
:100C0E001F200A128A11780883120313A300790891
:100C1E00A4007A08A5000030A0007A30A10044306C
:100C2E00A2000A128A113A210A128A1183120313A0
:100C3E002008B0002108B1002208B2000A128A1161
:100C4E00AC200A128A11831203133008BE00310839
:100C5E00BF003208C0003308C100C0308312031336
:100C6E008600013084000A128A1103200A128A11AA
:100C7E00F8000A128A1103200A128A11F9000A12C8
:100C8E008A111F200A128A11780883120313A300F7
:100C9E007908A4007A08A5000030A0007A30A100DF
:100CAE004430A2000A128A113A210A128A118312C2
:100CBE0003132008B0002108B1002208B2000A1266
:100CCE008A11AC200A128A11831203133008BE0057
:100CDE003108BF003208C0003308C100E030831273
:100CEE0003138600013084000A128A1103200A12AF
:100CFE008A11F8000A128A1103200A128A11F900C9
:100D0E000A128A111F200A128A11780883120313FD
:100D1E00A3007908A4007A08A5000030A0007A305C
:100D2E00A1004430A2000A128A113A210A128A1135
:100D3E00831203132008B0002108B1002208B2006C
:100D4E000A128A11AC200A128A1183120313300878
:100D5E00BE003108BF003208C0003308C100F030B9
:100D6E00831203138600013084000A128A110320B5
:100D7E000A128A11F8000A128A1103200A128A1125
:100D8E00F9000A128A111F200A128A11780883129A
:100D9E000313A3007908A4007A08A5000030A00070
:100DAE007A30A1004430A2000A128A113A210A12A6
:100DBE008A11831203132008B0002108B100220803
:100DCE00B2000A128A11AC200A128A11831203137E
:100DDE003008BE003108BF003208C0003308C10021
:100DEE00F830831203138600013084000A128A1130
:100DFE0003200A128A11F8000A128A1103200A121D
:100E0E008A11F9000A128A111F200A128A11780813
:100E1E0083120313A3007908A4007A08A5000030FA
:100E2E00A0007A30A1004430A2000A128A113A21A1
:100E3E000A128A11831203132008B0002108B10090
:100E4E002208B2000A128A11AC200A128A118312E9
:100E5E0003133008BE003108BF003208C00033084B
:100E6E00C100FC30831203138600013084000A1285
:100E7E008A1103200A128A11F8000A128A1103201D
:100E8E000A128A11F9000A128A111F200A128A11F7
:100E9E00780883120313A3007908A4007A08A5002A
:100EAE000030A0007A30A1004430A2000A128A114C
:100EBE003A210A128A11831203132008B000210866
:100ECE00B1002208B2000A128A11AC200A128A114D
:100EDE00831203133008BE003108BF003208C00071
:100EEE003308C100FE3083120313860001308400E4
:100EFE000A128A1103200A128A11F8000A128A11A4
:100F0E0003200A128A11F9000A128A111F200A12EE
:100F1E008A11780883120313A3007908A4007A08B3
:100F2E00A5000030A0007A30A1004430A2000A12C1
:100F3E008A113A210A128A11831203132008B00073
:100F4E002108B1002208B2000A128A11AC200A123E
:100F5E008A11831203133008BE003108BF00320815
:100F6E00C0003308C100FF30831203138600013026
:100F7E0084000A128A1103200A128A11F8000A123A
:100F8E008A1103200A128A11F9000A128A111F20EF
:100F9E000A128A11780883120313A3007908A40099
:100FAE007A08A5000030A0007A30A1004430A200DB
:100FBE000A128A113A210A128A1183120313200887
:100FCE00B0002108B1002208B2000A128A11AC202A
:100FDE000A128A11831203133008BE003108BF00B3
:100FEE003208C0003308C1001A2A83010A128A117E
:020FFE000D2ABA
:04400E00FCE0FFFFD4
:00000001FF
