:060000000A128A11F02F24
:10095400831603138601831203138601FF30831663
:100964000313870083120313870177087804031D98
:10097400C32C0030F000F1000A128A1119260A1261
:100984008A110A128A11F7240A128A117703780449
:10099400031DD62C0130F0000030F1000A128A1138
:1009A40019260A128A11B72C023077067804031D1F
:1009B400E12C0A128A114D250A128A11B72C033030
:1009C40077067804031DEC2C0A128A11B3250A1247
:1009D4008A11B72C043077067804031DB72C0A1249
:1009E4008A1104270A128A11B72C83120313071CD5
:1009F400022D0130FB000030FC00F901FA010A2D40
:100A0400871C0D2DFB01FC010130F9000030FA00B8
:100A1400A201A301172D071D1A2DFB01FC01F901E9
:100A2400FA010130A2000030A300A001A101262D8B
:100A3400871D262DFB01FC01F901FA01A201A30186
:100A44000130A0000030A1007B037C04031D2F2D86
:100A54000130F7000030F800080079037A04031D20
:100A6400382D0230F7000030F80008002203230478
:100A7400031D412D0330F7000030F8000800200367
:100A84002104031D4A2D0430F7000030F80008004B
:100A9400F701F80108008130831203138600033044
:100AA400F2008A30F1005530F000F00B572DF10BB5
:100AB400572DF20B572D5E2D0A128A11F7240A12B4
:100AC4008A11023077067804031D0800423083122D
:100AD400031386000330F2008A30F1005530F00031
:100AE400F00B722DF10B722DF20B722D792D0A126F
:100AF4008A11F7240A128A11023077067804031D3A
:100B0400080024308312031386000330F2008A3075
:100B1400F1005530F000F00B8D2DF10B8D2DF20B03
:100B24008D2D942D0A128A11F7240A128A1102308B
:100B340077067804031D0800183083120313860017
:100B44000330F2008A30F1005530F000F00BA82D8C
:100B5400F10BA82DF20BA82DAF2D0A128A11F72440
:100B6400080018308312031386000330F2008A3021
:100B7400F1005530F000F00BBD2DF10BBD2DF20B43
:100B8400BD2DC42D0A128A11F7240A128A110330CA
:100B940077067804031D08002430831203138600AB
:100BA4000330F2008A30F1005530F000F00BD82DFC
:100BB400F10BD82DF20BD82DDF2D0A128A11F72450
:100BC4000A128A11033077067804031D08004230A4
:100BD4008312031386000330F2008A30F10055308B
:100BE400F000F00BF32DF10BF32DF20BF32DFA2D96
:100BF4000A128A11F7240A128A110330770678043C
:100C0400031D080081308312031386000330F200B1
:100C14008A30F1005530F000F00B0E2EF10B0E2E41
:100C2400F20B0E2E152E0A128A11F7240800013039
:100C34008312031386000330F4008A30F300553026
:100C4400F200F20B232EF30B232EF40B232E2A2E69
:100C54007108F6007008F5000A128A11F7240A12C6
:100C64008A1176087806031D392E75087706031D48
:100C7400080002308312031386000330F4008A3024
:100C8400F3005530F200F20B452EF30B452EF40B16
:100C9400452E4C2E0A128A11F7240A128A1176085C
:100CA4007806031D572E75087706031D08000430C7
:100CB4008312031386000330F4008A30F3005530A6
:100CC400F200F20B632EF30B632EF40B632E6A2EE9
:100CD4000A128A11F7240A128A1176087806031D6B
:100CE400752E75087706031D080008308312031358
:100CF40086000330F4008A30F3005530F200F20B22
:100D0400812EF30B812EF40B812E882E0A128A1168
:100D1400F7240A128A1176087806031D932E7508A3
:100D24007706031D08001030831203138600033076
:100D3400F4008A30F3005530F200F20B9F2EF30BCF
:100D44009F2EF40B9F2EA62E0A128A11F7240A1244
:100D54008A1176087806031DB12E75087706031DDF
:100D6400080020308312031386000330F4008A3015
:100D7400F3005530F200F20BBD2EF30BBD2EF40B35
:100D8400BD2EC42E0A128A11F7240A128A1176087B
:100D94007806031DCF2E75087706031D0800403022
:100DA4008312031386000330F4008A30F3005530B5
:100DB400F200F20BDB2EF30BDB2EF40BDB2EE22E18
:100DC4000A128A11F7240A128A1176087806031D7A
:100DD400ED2E75087706031D080080308312031377
:100DE40086000330F4008A30F3005530F200F20B31
:100DF400F92EF30BF92EF40BF92E002F0A128A1197
:100E0400F724080080308312031386000330F200B5
:100E14008A30F1005530F000F00B0E2FF10B0E2F3D
:100E2400F20B0E2F152F0A128A11F7240A128A11B7
:100E3400043077067804031D0800C03083120313BE
:100E440086000330F2008A30F1005530F000F00BD8
:100E5400292FF10B292FF20B292F302F0A128A1177
:100E6400F7240A128A11043077067804031D080057
:100E7400E0308312031386000330F2008A30F1005D
:100E84005530F000F00B442FF10B442FF20B442F9C
:100E94004B2F0A128A11F7240A128A11043077069A
:100EA4007804031D0800F030831203138600033016
:100EB400F2008A30F1005530F000F00B5F2FF10B97
:100EC4005F2FF20B5F2F662F0A128A11F7240A1282
:100ED4008A11043077067804031D0800F830831261
:100EE400031386000330F2008A30F1005530F0001D
:100EF400F00B7A2FF10B7A2FF20B7A2F812F0A1233
:100F04008A11F7240A128A11043077067804031D23
:100F14000800FC308312031386000330F2008A3089
:100F2400F1005530F000F00B952FF10B952FF20BDB
:100F3400952F9C2F0A128A11F7240A128A11043061
:100F440077067804031D0800FE308312031386001D
:100F54000330F2008A30F1005530F000F00BB02F6E
:100F6400F10BB02FF20BB02FB72F0A128A11F7240E
:100F74000A128A11043077067804031D0800FF3032
:100F84008312031386000330F2008A30F1005530D7
:100F9400F000F00BCB2FF10BCB2FF20BCB2FD22F7A
:100FA4000A128A11F7240A128A1104307706780487
:100FB400031D08008312031386010330F2008A30F4
:100FC400F1005530F000F00BE52FF10BE52FF20B9B
:100FD400E52FEC2F0A128A11F7240800F701F80113
:100FE400F901FA01FB01FC0183120313A001A10121
:0C0FF400A201A30183010A128A11AA2C99
:00000001FF
