:100000000A128A11F22F00308A000408840A82073B
:060010000034E834033463
:10003200831203133008B4003108B5003208B60049
:100042000310350D360DB7003708BD003D08031DFE
:1000520033280030B3000030B2000030B10000306D
:10006200B00008003008B4003108B5003208B6000C
:1000720017300310B60CB50CB40CFF3E031D3A2822
:100082003408B7003708B800B117FF30B005FF30A9
:10009200B1050030B2053008B9003108BA003208A3
:1000A200BB00BC018E30BD02BD1F75283D08803AE1
:1000B2008F3E031865280030B3000030B2000030D4
:1000C200B1000030B000080001300310BC0CBB0CC2
:1000D200BA0CB90CFF3E031D66280130B400340887
:1000E200BD0703199028652818303D02031C8D288E
:1000F2000030B3000030B2000030B1000030B00078
:1001020008000130B4000310B90DBA0DBB0DBC0DCF
:10011200B40B84280130BD023D08031D8228380833
:1001220003199E28B909BA09BB09BC09B90A0319FE
:10013200BA0A0319BB0A0319BC0A3C08B3003B08FC
:10014200B2003A08B1003908B00008008312031364
:100152002008A6002108A7002208A8000310270DE6
:10016200280DA9002908AA002A08031DBF2800306B
:10017200A0000030A1000030A20008002308A60061
:100182002408A7002508A8000310270D280DA900A0
:100192002908AF002F08031DD5280030A000003029
:1001A200A1000030A20008002F087B3EA60026080E
:1001B200AA072008A6002108A7002208A8001030DC
:1001C2000310A80CA70CA60CFF3E031DE12826086D
:1001D200A9002908AF002308A6002408A7002508C3
:1001E200A80010300310A80CA70CA60CFF3E031D9C
:1001F200F3282608A9002908AF068030A6002608A1
:10020200AF05A117A417FF30A305FF30A4050030E6
:10021200A5050030AB000030AC000030AD00073067
:10022200A6002608AE00201C24292308AB072408B8
:1002320003110318240A031DAC0725080311031830
:10024200250A031DAD0701300310A20CA10CA00C5E
:10025200FF3E031D252901300310A30DA40DA50D9A
:10026200FF3E031D2D290130AE02031D1429093062
:10027200A6002608AE00201C4C292308AB07240840
:1002820003110318240A031DAC07250803110318E0
:10029200250A031DAD0701300310A20CA10CA00C0E
:1002A200FF3E031D4D2901300310AD0CAC0CAB0C0D
:1002B200FF3E031D55290130AE02031D3C292B08C8
:1002C200F0002C08F1002D08F2002A08A6002608EA
:1002D200F3002F08A7002708F4000A128A159427B2
:1002E200700883120313A0007108A1007208A20013
:1002F200080083160313860183120313860101305B
:1003020083160313870083120313870183120313D7
:10031200071C91290130C8070318C90A0030C90710
:1003220048034904031D9B2B0130860001308400E1
:100332000A128A1103200A128A11F8000A128A117B
:1003420003200A128A11F9000A128A1573270A1267
:100352008A11780883120313A3007908A4007A088B
:10036200A5000030A0007A30A1004430A2000A1299
:100372008A11A7200A128A11831203132008B000DF
:100382002108B1002208B2000A128A1119200A12A9
:100392008A11831203133008BE003108BF003208ED
:1003A200C0003308C10002308312031386000130FB
:1003B20084000A128A1103200A128A11F8000A1212
:1003C2008A1103200A128A11F9000A128A15732768
:1003D2000A128A11780883120313A3007908A40071
:1003E2007A08A5000030A0007A30A1004430A200B3
:1003F2000A128A11A7200A128A11831203132008F3
:10040200B0002108B1002208B2000A128A11192094
:100412000A128A11831203133008BE003108BF008A
:100422003208C0003308C10004308312031386006F
:10043200013084000A128A1103200A128A11F8007C
:100442000A128A1103200A128A11F9000A128A1565
:1004520073270A128A11780883120313A3007908FA
:10046200A4007A08A5000030A0007A30A100443030
:10047200A2000A128A11A7200A128A1183120313F8
:100482002008B0002108B1002208B2000A128A1125
:1004920019200A128A11831203133008BE00310890
:1004A200BF003208C0003308C100083083120313B2
:1004B2008600013084000A128A1103200A128A116E
:1004C200F8000A128A1103200A128A11F9000A128C
:1004D2008A1573270A128A11780883120313A3005C
:1004E2007908A4007A08A5000030A0007A30A100A3
:1004F2004430A2000A128A11A7200A128A1183121A
:1005020003132008B0002108B1002208B2000A1229
:100512008A1119200A128A11831203133008BE00AD
:100522003108BF003208C0003308C1001030831206
:1005320003138600013084000A128A1103200A1272
:100542008A11F8000A128A1103200A128A11F9008C
:100552000A128A1573270A128A1178088312031362
:10056200A3007908A4007A08A5000030A0007A3020
:10057200A1004430A2000A128A11A7200A128A118D
:10058200831203132008B0002108B1002208B20030
:100592000A128A1119200A128A11831203133008CF
:1005A200BE003108BF003208C0003308C10020304D
:1005B200831203138600013084000A128A11032079
:1005C2000A128A11F8000A128A1103200A128A11E9
:1005D200F9000A128A1573270A128A1178088312FF
:1005E2000313A3007908A4007A08A5000030A00034
:1005F2007A30A1004430A2000A128A11A7200A12FE
:100602008A11831203132008B0002108B1002208C6
:10061200B2000A128A1119200A128A1183120313D4
:100622003008BE003108BF003208C0003308C100E4
:100632004030831203138600013084000A128A11AB
:1006420003200A128A11F8000A128A1103200A12E0
:100652008A11F9000A128A1573270A128A11780878
:1006620083120313A3007908A4007A08A5000030BE
:10067200A0007A30A1004430A2000A128A11A720F9
:100682000A128A11831203132008B0002108B10054
:100692002208B2000A128A1119200A128A11831240
:1006A20003133008BE003108BF003208C00033080F
:1006B200C1008030831203138600013084000A12C5
:1006C2008A1103200A128A11F8000A128A110320E1
:1006D2000A128A11F9000A128A1573270A128A115C
:1006E200780883120313A3007908A4007A08A500EE
:1006F2000030A0007A30A1004430A2000A128A1110
:10070200A7200A128A11831203132008B0002108BD
:10071200B1002208B2000A128A1119200A128A11A3
:10072200831203133008BE003108BF003208C00034
:100732003308C10083120313871CA12C8130860069
:10074200013084000A128A1103200A128A11F80069
:100752000A128A1103200A128A11F9000A128A1552
:1007620073270A128A11780883120313A3007908E7
:10077200A4007A08A5000030A0007A30A10044301D
:10078200A2000A128A11A7200A128A1183120313E5
:100792002008B0002108B1002208B2000A128A1112
:1007A20019200A128A11831203133008BE0031087D
:1007B200BF003208C0003308C10042308312031365
:1007C2008600013084000A128A1103200A128A115B
:1007D200F8000A128A1103200A128A11F9000A1279
:1007E2008A1573270A128A11780883120313A30049
:1007F2007908A4007A08A5000030A0007A30A10090
:100802004430A2000A128A11A7200A128A11831206
:1008120003132008B0002108B1002208B2000A1216
:100822008A1119200A128A11831203133008BE009A
:100832003108BF003208C0003308C10024308312DF
:1008420003138600013084000A128A1103200A125F
:100852008A11F8000A128A1103200A128A11F90079
:100862000A128A1573270A128A117808831203134F
:10087200A3007908A4007A08A5000030A0007A300D
:10088200A1004430A2000A128A11A7200A128A117A
:10089200831203132008B0002108B1002208B2001D
:1008A2000A128A1119200A128A11831203133008BC
:1008B200BE003108BF003208C0003308C100183042
:1008C200831203138600013084000A128A11032066
:1008D2000A128A11F8000A128A1103200A128A11D6
:1008E200F9000A128A1573270A128A1178088312EC
:1008F2000313A3007908A4007A08A5000030A00021
:100902007A30A1004430A2000A128A11A7200A12EA
:100912008A11831203132008B0002108B1002208B3
:10092200B2000A128A1119200A128A1183120313C1
:100932003008BE003108BF003208C0003308C100D1
:1009420083120313071DA72D18308600013084007F
:100952000A128A1103200A128A11F8000A128A1155
:1009620003200A128A11F9000A128A1573270A1241
:100972008A11780883120313A3007908A4007A0865
:10098200A5000030A0007A30A1004430A2000A1273
:100992008A11A7200A128A11831203132008B000B9
:1009A2002108B1002208B2000A128A1119200A1283
:1009B2008A11831203133008BE003108BF003208C7
:1009C200C0003308C10024308312031386000130B3
:1009D20084000A128A1103200A128A11F8000A12EC
:1009E2008A1103200A128A11F9000A128A15732742
:1009F2000A128A11780883120313A3007908A4004B
:100A02007A08A5000030A0007A30A1004430A2008C
:100A12000A128A11A7200A128A11831203132008CC
:100A2200B0002108B1002208B2000A128A1119206E
:100A32000A128A11831203133008BE003108BF0064
:100A42003208C0003308C10042308312031386000B
:100A5200013084000A128A1103200A128A11F80056
:100A62000A128A1103200A128A11F9000A128A153F
:100A720073270A128A11780883120313A3007908D4
:100A8200A4007A08A5000030A0007A30A10044300A
:100A9200A2000A128A11A7200A128A1183120313D2
:100AA2002008B0002108B1002208B2000A128A11FF
:100AB20019200A128A11831203133008BE0031086A
:100AC200BF003208C0003308C10081308312031313
:100AD2008600013084000A128A1103200A128A1148
:100AE200F8000A128A1103200A128A11F9000A1266
:100AF2008A1573270A128A11780883120313A30036
:100B02007908A4007A08A5000030A0007A30A1007C
:100B12004430A2000A128A11A7200A128A118312F3
:100B220003132008B0002108B1002208B2000A1203
:100B32008A1119200A128A11831203133008BE0087
:100B42003108BF003208C0003308C100831203130A
:100B5200871D872980308600013084000A128A119D
:100B620003200A128A11F8000A128A1103200A12BB
:100B72008A11F9000A128A1573270A128A11780853
:100B820083120313A3007908A4007A08A500003099
:100B9200A0007A30A1004430A2000A128A11A720D4
:100BA2000A128A11831203132008B0002108B1002F
:100BB2002208B2000A128A1119200A128A1183121B
:100BC20003133008BE003108BF003208C0003308EA
:100BD200C100C030831203138600013084000A1260
:100BE2008A1103200A128A11F8000A128A110320BC
:100BF2000A128A11F9000A128A1573270A128A1137
:100C0200780883120313A3007908A4007A08A500C8
:100C12000030A0007A30A1004430A2000A128A11EA
:100C2200A7200A128A11831203132008B000210898
:100C3200B1002208B2000A128A1119200A128A117E
:100C4200831203133008BE003108BF003208C0000F
:100C52003308C100E03083120313860001308400A0
:100C62000A128A1103200A128A11F8000A128A1142
:100C720003200A128A11F9000A128A1573270A122E
:100C82008A11780883120313A3007908A4007A0852
:100C9200A5000030A0007A30A1004430A2000A1260
:100CA2008A11A7200A128A11831203132008B000A6
:100CB2002108B1002208B2000A128A1119200A1270
:100CC2008A11831203133008BE003108BF003208B4
:100CD200C0003308C100F0308312031386000130D4
:100CE20084000A128A1103200A128A11F8000A12D9
:100CF2008A1103200A128A11F9000A128A1573272F
:100D02000A128A11780883120313A3007908A40037
:100D12007A08A5000030A0007A30A1004430A20079
:100D22000A128A11A7200A128A11831203132008B9
:100D3200B0002108B1002208B2000A128A1119205B
:100D42000A128A11831203133008BE003108BF0051
:100D52003208C0003308C100F83083120313860042
:100D6200013084000A128A1103200A128A11F80043
:100D72000A128A1103200A128A11F9000A128A152C
:100D820073270A128A11780883120313A3007908C1
:100D9200A4007A08A5000030A0007A30A1004430F7
:100DA200A2000A128A11A7200A128A1183120313BF
:100DB2002008B0002108B1002208B2000A128A11EC
:100DC20019200A128A11831203133008BE00310857
:100DD200BF003208C0003308C100FC308312031385
:100DE2008600013084000A128A1103200A128A1135
:100DF200F8000A128A1103200A128A11F9000A1253
:100E02008A1573270A128A11780883120313A30022
:100E12007908A4007A08A5000030A0007A30A10069
:100E22004430A2000A128A11A7200A128A118312E0
:100E320003132008B0002108B1002208B2000A12F0
:100E42008A1119200A128A11831203133008BE0074
:100E52003108BF003208C0003308C100FE308312DF
:100E620003138600013084000A128A1103200A1239
:100E72008A11F8000A128A1103200A128A11F90053
:100E82000A128A1573270A128A1178088312031329
:100E9200A3007908A4007A08A5000030A0007A30E7
:100EA200A1004430A2000A128A11A7200A128A1154
:100EB200831203132008B0002108B1002208B200F7
:100EC2000A128A1119200A128A1183120313300896
:100ED200BE003108BF003208C0003308C100FF3035
:100EE200831203138600013084000A128A11032040
:100EF2000A128A11F8000A128A1103200A128A11B0
:100F0200F9000A128A1573270A128A1178088312C5
:100F12000313A3007908A4007A08A5000030A000FA
:100F22007A30A1004430A2000A128A11A7200A12C4
:100F32008A11831203132008B0002108B10022088D
:100F4200B2000A128A1119200A128A11831203139B
:100F52003008BE003108BF003208C0003308C100AB
:100F6200831203138601013084000A128A110320BE
:100F72000A128A11F8000A128A1103200A128A112F
:100F8200F9000A128A1573270A128A117808831245
:100F92000313A3007908A4007A08A5000030A0007A
:100FA2007A30A1004430A2000A128A11A7200A1244
:100FB2008A11831203132008B0002108B10022080D
:100FC200B2000A128A1119200A128A11831203131B
:100FD2003008BE003108BF003208C0003308C1002B
:100FE200872983120313C201C301C401C501C601CB
:0E0FF200C701C801C90183010A128A117A29B8
:101EE600FD01F91F7D2FF809F909F80A0319F90A06
:101EF600FD01FD0A7808F0007908F100F2018E3044
:101F0600FB007B08F3007D08FC007C08F4000A1245
:101F16008A1594277008F8007108F9007208FA000B
:101F26000800730803199C2F720871047004031DBE
:101F3600AF2F0030F0000030F1000030F200080052
:101F46000130F5007508F30701300310F20CF10CAF
:101F5600F00CFF3E031DA82FFE3072050319CA2F91
:101F6600A32F0130F5007508F3070130F0070030A4
:101F760003180130F107003003180130F207013071
:101F86000310F20CF10CF00CFF3E031DC32FFF30C3
:101F960072050319D92FB42F0130F3020130031053
:101FA600F00DF10DF20DFF3E031DD22FF11BDF2FB9
:101FB600023073020318CF2F7318E72FFF30F00596
:101FC6007F30F105FF30F2050310F30C7308F500BE
:101FD600F601F70110300310F50DF60DF70DFF3E73
:101FE600031DEE2F7508F0047608F1047708F20455
:0A1FF600740803190800F217080030
:04400E00FCE0FFFFD4
:00000001FF
