:100000000A128A11F22F00308A000408840A82073B
:060010000034E834033463
:10004400730803192A28720871047004031D3D28DB
:100054000030F0000030F1000030F2000800013000
:10006400F5007508F30701300310F20CF10CF00CE5
:10007400FF3E031D3628FE30720503195828312827
:100084000130F5007508F3070130F007003003185C
:100094000130F107003003180130F207013003107A
:1000A400F20CF10CF00CFF3E031D5128FF307205D9
:1000B4000319672842280130F30201300310F00DC0
:1000C400F10DF20DFF3E031D6028F11B6D28023077
:1000D400730203185D2873187528FF30F0057F300C
:1000E400F105FF30F2050310F30C7308F500F60177
:1000F400F70110300310F50DF60DF70DFF3E031D4B
:100104007C287508F0047608F1047708F204740872
:1001140003190800F2170800831203132008A6002D
:100124002108A7002208A8000310270D280DA90004
:100134002908AA002A08031DA6280030A0000030C0
:10014400A1000030A20008002308A6002408A7008C
:100154002508A8000310270D280DA9002908AF00C1
:100164002F08031DBC280030A0000030A10000307F
:10017400A20008002F087B3EA6002608AA07200834
:10018400A6002108A7002208A80010300310A80C1C
:10019400A70CA60CFF3E031DC8282608A9002908A1
:1001A400AF002308A6002408A7002508A8001030E3
:1001B4000310A80CA70CA60CFF3E031DDA28260882
:1001C400A9002908AF068030A6002608AF05A117AC
:1001D400A417FF30A305FF30A4050030A5050030A7
:1001E400AB000030AC000030AD000730A60026089C
:1001F400AE00201C0B292308AB07240803110318A5
:10020400240A031DAC07250803110318250A031D3E
:10021400AD0701300310A20CA10CA00CFF3E031D7E
:100224000C2901300310A30DA40DA50DFF3E031DE1
:1002340014290130AE02031DFB280930A60026084C
:10024400AE00201C33292308AB072408031103182C
:10025400240A031DAC07250803110318250A031DEE
:10026400AD0701300310A20CA10CA00CFF3E031D2E
:10027400342901300310AD0CAC0CAB0CFF3E031D54
:100284003C290130AE02031D23292B08F0002C0861
:10029400F1002D08F2002A08A6002608F3002F0812
:1002A400A7002708F4000A128A112220700883127A
:1002B4000313A0007108A1007208A20008008316AD
:1002C400031386018312031386010130831603137B
:1002D4008700831203138701071C812B0130C80098
:1002E4000030C9008312031348034904031D812B02
:1002F40001308600013084000A128A1103200A1298
:100304008A11F8000A128A1103200A128A11F900CC
:100314000A128A1551270A128A11780883120313C4
:10032400A3007908A4007A08A5000030A0007A3060
:10033400A1004430A2000A128A118E200A128A11E6
:10034400831203132008B0002108B1002208B20070
:100354000A128A1572270A128A11831203133008AB
:10036400BE003108BF003208C0003308C1000230AB
:10037400831203138600013084000A128A110320B9
:100384000A128A11F8000A128A1103200A128A1129
:10039400F9000A128A1551270A128A117808831261
:1003A4000313A3007908A4007A08A5000030A00074
:1003B4007A30A1004430A2000A128A118E200A1257
:1003C4008A11831203132008B0002108B100220807
:1003D400B2000A128A1572270A128A1183120313B1
:1003E4003008BE003108BF003208C0003308C10025
:1003F4000430831203138600013084000A128A1128
:1004040003200A128A11F8000A128A1103200A1220
:100414008A11F9000A128A1551270A128A117808DA
:1004240083120313A3007908A4007A08A5000030FE
:10043400A0007A30A1004430A2000A128A118E2052
:100444000A128A11831203132008B0002108B10094
:100454002208B2000A128A1572270A128A1183121C
:1004640003133008BE003108BF003208C00033084F
:10047400C1000830831203138600013084000A127D
:100484008A1103200A128A11F8000A128A11032021
:100494000A128A11F9000A128A1551270A128A11BE
:1004A400780883120313A3007908A4007A08A5002E
:1004B4000030A0007A30A1004430A2000A128A1150
:1004C4008E200A128A11831203132008B000210817
:1004D400B1002208B2000A128A1572270A128A1180
:1004E400831203133008BE003108BF003208C00075
:1004F4003308C100103083120313860001308400D6
:100504000A128A1103200A128A11F8000A128A11A7
:1005140003200A128A11F9000A128A1551270A12B5
:100524008A11780883120313A3007908A4007A08B7
:10053400A5000030A0007A30A1004430A2000A12C5
:100544008A118E200A128A11831203132008B00024
:100554002108B1002208B2000A128A1572270A1271
:100564008A11831203133008BE003108BF00320819
:10057400C0003308C1002030831203138600013009
:1005840084000A128A1103200A128A11F8000A123E
:100594008A1103200A128A11F9000A128A155127B6
:1005A4000A128A11780883120313A3007908A4009D
:1005B4007A08A5000030A0007A30A1004430A200DF
:1005C4000A128A118E200A128A1183120313200838
:1005D400B0002108B1002208B2000A128A1572275D
:1005E4000A128A11831203133008BE003108BF00B7
:1005F4003208C0003308C100403083120313860060
:10060400013084000A128A1103200A128A11F800A8
:100614000A128A1103200A128A11F9000A128A1591
:1006240051270A128A11780883120313A300790848
:10063400A4007A08A5000030A0007A30A10044305C
:10064400A2000A128A118E200A128A11831203133D
:100654002008B0002108B1002208B2000A128A154D
:1006640072270A128A11831203133008BE0031085C
:10067400BF003208C0003308C10080308312031366
:100684008600013084000A128A1103200A128A119A
:10069400F8000A128A1103200A128A11F9000A12B8
:1006A4008A1551270A128A11780883120313A300AA
:1006B4007908A4007A08A5000030A0007A30A100CF
:1006C4004430A2000A128A118E200A128A1183125F
:1006D40003132008B0002108B1002208B2000A1256
:1006E4008A1572270A128A11831203133008BE0076
:1006F4003108BF003208C0003308C1007429871CC8
:10070400902C0130C6000030C70083120313460347
:100714004704031D902C81308600013084000A12A6
:100724008A1103200A128A11F8000A128A1103207E
:100734000A128A11F9000A128A1551270A128A111B
:10074400780883120313A3007908A4007A08A5008B
:100754000030A0007A30A1004430A2000A128A11AD
:100764008E200A128A11831203132008B000210874
:10077400B1002208B2000A128A1572270A128A11DD
:10078400831203133008BE003108BF003208C000D2
:100794003308C10042308312031386000130840001
:1007A4000A128A1103200A128A11F8000A128A1105
:1007B40003200A128A11F9000A128A1551270A1213
:1007C4008A11780883120313A3007908A4007A0815
:1007D400A5000030A0007A30A1004430A2000A1223
:1007E4008A118E200A128A11831203132008B00082
:1007F4002108B1002208B2000A128A1572270A12CF
:100804008A11831203133008BE003108BF00320876
:10081400C0003308C1002430831203138600013062
:1008240084000A128A1103200A128A11F8000A129B
:100834008A1103200A128A11F9000A128A15512713
:100844000A128A11780883120313A3007908A400FA
:100854007A08A5000030A0007A30A1004430A2003C
:100864000A128A118E200A128A1183120313200895
:10087400B0002108B1002208B2000A128A157227BA
:100884000A128A11831203133008BE003108BF0014
:100894003208C0003308C1001830831203138600E5
:1008A400013084000A128A1103200A128A11F80006
:1008B4000A128A1103200A128A11F9000A128A15EF
:1008C40051270A128A11780883120313A3007908A6
:1008D400A4007A08A5000030A0007A30A1004430BA
:1008E400A2000A128A118E200A128A11831203139B
:1008F4002008B0002108B1002208B2000A128A15AB
:1009040072270A128A11831203133008BE003108B9
:10091400BF003208C0003308C100872B071D9F2D7C
:100924000130C4000030C50083120313440345049E
:10093400031D9F2D18308600013084000A128A118D
:1009440003200A128A11F8000A128A1103200A12DB
:100954008A11F9000A128A1551270A128A11780895
:1009640083120313A3007908A4007A08A5000030B9
:10097400A0007A30A1004430A2000A128A118E200D
:100984000A128A11831203132008B0002108B1004F
:100994002208B2000A128A1572270A128A118312D7
:1009A40003133008BE003108BF003208C00033080A
:1009B400C1002430831203138600013084000A121C
:1009C4008A1103200A128A11F8000A128A110320DC
:1009D4000A128A11F9000A128A1551270A128A1179
:1009E400780883120313A3007908A4007A08A500E9
:1009F4000030A0007A30A1004430A2000A128A110B
:100A04008E200A128A11831203132008B0002108D1
:100A1400B1002208B2000A128A1572270A128A113A
:100A2400831203133008BE003108BF003208C0002F
:100A34003308C1004230831203138600013084005E
:100A44000A128A1103200A128A11F8000A128A1162
:100A540003200A128A11F9000A128A1551270A1270
:100A64008A11780883120313A3007908A4007A0872
:100A7400A5000030A0007A30A1004430A2000A1280
:100A84008A118E200A128A11831203132008B000DF
:100A94002108B1002208B2000A128A1572270A122C
:100AA4008A11831203133008BE003108BF003208D4
:100AB400C0003308C1008130831203138600013063
:100AC40084000A128A1103200A128A11F8000A12F9
:100AD4008A1103200A128A11F9000A128A15512771
:100AE4000A128A11780883120313A3007908A40058
:100AF4007A08A5000030A0007A30A1004430A2009A
:100B04000A128A118E200A128A11831203132008F2
:100B1400B0002108B1002208B2000A128A15722717
:100B24000A128A11831203133008BE003108BF0071
:100B34003208C0003308C100962C871D6E2901308D
:100B4400C2000030C3008312031342034304031D95
:100B54006E2980308600013084000A128A11032035
:100B64000A128A11F8000A128A1103200A128A1141
:100B7400F9000A128A1551270A128A117808831279
:100B84000313A3007908A4007A08A5000030A0008C
:100B94007A30A1004430A2000A128A118E200A126F
:100BA4008A11831203132008B0002108B10022081F
:100BB400B2000A128A1572270A128A1183120313C9
:100BC4003008BE003108BF003208C0003308C1003D
:100BD400C030831203138600013084000A128A1184
:100BE40003200A128A11F8000A128A1103200A1239
:100BF4008A11F9000A128A1551270A128A117808F3
:100C040083120313A3007908A4007A08A500003016
:100C1400A0007A30A1004430A2000A128A118E206A
:100C24000A128A11831203132008B0002108B100AC
:100C34002208B2000A128A1572270A128A11831234
:100C440003133008BE003108BF003208C000330867
:100C5400C100E030831203138600013084000A12BD
:100C64008A1103200A128A11F8000A128A11032039
:100C74000A128A11F9000A128A1551270A128A11D6
:100C8400780883120313A3007908A4007A08A50046
:100C94000030A0007A30A1004430A2000A128A1168
:100CA4008E200A128A11831203132008B00021082F
:100CB400B1002208B2000A128A1572270A128A1198
:100CC400831203133008BE003108BF003208C0008D
:100CD4003308C100F030831203138600013084000E
:100CE4000A128A1103200A128A11F8000A128A11C0
:100CF40003200A128A11F9000A128A1551270A12CE
:100D04008A11780883120313A3007908A4007A08CF
:100D1400A5000030A0007A30A1004430A2000A12DD
:100D24008A118E200A128A11831203132008B0003C
:100D34002108B1002208B2000A128A1572270A1289
:100D44008A11831203133008BE003108BF00320831
:100D5400C0003308C100F830831203138600013049
:100D640084000A128A1103200A128A11F8000A1256
:100D74008A1103200A128A11F9000A128A155127CE
:100D84000A128A11780883120313A3007908A400B5
:100D94007A08A5000030A0007A30A1004430A200F7
:100DA4000A128A118E200A128A1183120313200850
:100DB400B0002108B1002208B2000A128A15722775
:100DC4000A128A11831203133008BE003108BF00CF
:100DD4003208C0003308C100FC30831203138600BC
:100DE400013084000A128A1103200A128A11F800C1
:100DF4000A128A1103200A128A11F9000A128A15AA
:100E040051270A128A11780883120313A300790860
:100E1400A4007A08A5000030A0007A30A100443074
:100E2400A2000A128A118E200A128A118312031355
:100E34002008B0002108B1002208B2000A128A1565
:100E440072270A128A11831203133008BE00310874
:100E5400BF003208C0003308C100FE308312031300
:100E64008600013084000A128A1103200A128A11B2
:100E7400F8000A128A1103200A128A11F9000A12D0
:100E84008A1551270A128A11780883120313A300C2
:100E94007908A4007A08A5000030A0007A30A100E7
:100EA4004430A2000A128A118E200A128A11831277
:100EB40003132008B0002108B1002208B2000A126E
:100EC4008A1572270A128A11831203133008BE008E
:100ED4003108BF003208C0003308C100FF3083125C
:100EE40003138600013084000A128A1103200A12B7
:100EF4008A11F8000A128A1103200A128A11F900D1
:100F04000A128A1551270A128A11780883120313C8
:100F1400A3007908A4007A08A5000030A0007A3064
:100F2400A1004430A2000A128A118E200A128A11EA
:100F3400831203132008B0002108B1002208B20074
:100F44000A128A1572270A128A11831203133008AF
:100F5400BE003108BF003208C0003308C10083124C
:100F640003138601013084000A128A1103200A1235
:100F74008A11F8000A128A1103200A128A11F90050
:100F84000A128A1551270A128A1178088312031348
:100F9400A3007908A4007A08A5000030A0007A30E4
:100FA400A1004430A2000A128A118E200A128A116A
:100FB400831203132008B0002108B1002208B200F4
:100FC4000A128A1572270A128A118312031330082F
:100FD400BE003108BF003208C0003308C100A52D8F
:100FE40083120313C201C301C401C501C601C701B1
:0C0FF400C801C90183010A128A11612999
:101EA200FD01F91F5B2FF809F909F80A0319F90A6C
:101EB200FD01FD0A7808F0007908F100F2018E3088
:101EC200FB007B08F3007D08FC007C08F4000A128A
:101ED2008A1122207008F8007108F9007208FA00CD
:101EE2000800831203133008B4003108B500320829
:101EF200B6000310350D360DB7003708BD003D089A
:101F0200031D8C2F0030B3000030B2000030B1004E
:101F12000030B00008003008B4003108B5003208C3
:101F2200B60017300310B60CB50CB40CFF3E031DFF
:101F3200932F3408B7003708B800B117FF30B00547
:101F4200FF30B1050030B2053008B9003108BA00DF
:101F52003208BB00BC018E30BD02BD1FCE2F3D0832
:101F6200803A8F3E0318BE2F0030B3000030B2001B
:101F72000030B1000030B000080001300310BC0C8A
:101F8200BB0CBA0CB90CFF3E031DBF2F0130B400CD
:101F92003408BD070319E92FBE2F18303D02031C78
:101FA200E62F0030B3000030B2000030B100003044
:101FB200B00008000130B4000310B90DBA0DBB0D1A
:101FC200BC0DB40BDD2F0130BD023D08031DDB2F1C
:101FD20038080319F72FB909BA09BB09BC09B90AAC
:101FE2000319BA0A0319BB0A0319BC0A3C08B30055
:0E1FF2003B08B2003A08B1003908B000080000
:04400E00FCE0FFFFD4
:00000001FF
